:020000040800F2
:10000000600600200D020008150200081702000813
:10001000190200081B0200081D0200080000000071
:100020000000000000000000000000001F020008A7
:100030002102000800000000230200082502000839
:1000400027020008270200082702000827020008EC
:1000500027020008270200082702000827020008DC
:1000600027020008270200082702000827020008CC
:1000700027020008270200082702000827020008BC
:1000800027020008270200082702000827020008AC
:10009000270200082702000827020008270200089C
:1000A000270200082702000827020008270200088C
:1000B000270200082702000827020008270200087C
:1000C000270200082702000827020008270200086C
:1000D000270200082702000827020008270200085C
:1000E000270200082702000827020008270200084C
:1000F000270200082702000827020008270200083C
:10010000270200082702000827020008270200082B
:10011000270200082702000827020008270200081B
:10012000270200082702000827020008270200080B
:1001300027020008270200082702000827020008FB
:1001400027020008270200082702000827020008EB
:1001500027020008270200082702000827020008DB
:1001600027020008270200082702000827020008CB
:1001700027020008270200082702000800000000EC
:10018000270200082702000800F002F800F02EF80D
:100190000AA090E8000C82448344AAF10107DA45E2
:1001A00001D100F023F8AFF2090EBAE80F0013F006
:1001B000010F18BFFB1A43F001031847400200006B
:1001C000500200000023002400250026103A28BF1A
:1001D00078C1FBD8520728BF30C148BF0B607047B9
:1001E0001FB500F0FEF81FBD10B510BD00F031F8CE
:1001F0001146FFF7F5FF00F0D3F800F04FF803B415
:10020000FFF7F2FF03BC00F057F8000009488047F1
:1002100009480047FEE7FEE7FEE7FEE7FEE7FEE7E8
:10022000FEE7FEE7FEE7FEE704480549054A064B00
:10023000704700002D0300088901000860000020BD
:1002400060060020600200206002002070477047B6
:100250007047754600F02CF8AE46050069465346D7
:1002600020F00700854618B020B5FFF7DDFFBDE898
:1002700020404FF000064FF000074FF000084FF00D
:10028000000BAC46ACE8C009ACE8C009ACE8C0095A
:10029000ACE8C00921F007018D46704710B504464F
:1002A000AFF300802046BDE81040FFF7A8BF000074
:1002B000004870470000002001491820ABBEFEE74F
:1002C000260002007047000041F25800C4F202000C
:1002D000016841F00201016040F20040C4F20000F8
:1002E0000F21816240F2E731C16201210160704754
:1002F00041F20800C4F2020050F8081C490509D474
:1003000050F8081C41F4807140F8081C50F8081C93
:100310004905FBD501680160016801600168016061
:10032000016841F001010160704700004EF68850FD
:10033000CEF2000001684FF6FF7341F470010160D6
:1003400041F20000C4F202000168CEF6F62341F04B
:10035000010101600021816002681A4002604FF4CF
:100360008052C260026822F480220260816170477C
:1003700040F210414FF0000CC4F2000140F2E932AB
:10038000002300BFC1F814C00868C007FCD008688B
:10039000013320F001009342086008BF7047F1E785
:1003A0001424C4F60004FFF7A3FFFFF78DFF41F20A
:1003B0004C00C4F202000168002541F00101016017
:1003C0004FF090404FF48061016000BF206840F022
:1003D00020002060FFF7CCFF20682560FFF7C8FFF2
:1003E000F4E7F1EE100A4FF6FF71C0F2C03120EAD7
:1003F000010040F04070E1EE100A70470C04000864
:0C0400000000002060060000C40100089D
:040000050800020DE0
:00000001FF
