:020000040800F2
:10000000680600202D0200083502000837020008AB
:10001000390200083B0200083D0200080000000011
:100020000000000000000000000000003F02000887
:1000300041020008000000004302000845020008D9
:10004000470200084702000847020008470200086C
:10005000470200084702000847020008470200085C
:10006000470200084702000847020008470200084C
:10007000470200084702000847020008470200083C
:10008000470200084702000847020008470200082C
:10009000470200084702000847020008470200081C
:1000A000470200084702000847020008470200080C
:1000B00047020008470200084702000847020008FC
:1000C00047020008470200084702000847020008EC
:1000D00047020008470200084702000847020008DC
:1000E00047020008470200084702000847020008CC
:1000F00047020008470200084702000847020008BC
:1001000047020008470200084702000847020008AB
:10011000470200084702000847020008470200089B
:10012000470200084702000847020008470200088B
:10013000470200084702000847020008470200087B
:10014000470200084702000847020008470200086B
:10015000470200084702000847020008470200085B
:10016000470200084702000847020008470200084B
:10017000470200084702000847020008000000008C
:10018000470200084702000800F002F800F03EF8BD
:100190000AA090E8000C82448344AAF10107DA45E2
:1001A00001D100F033F8AFF2090EBAE80F0013F0F6
:1001B000010F18BFFB1A43F0010318476C1A000027
:1001C0007C1A00000023002400250026103A28BFD6
:1001D00078C1FBD8520728BF30C148BF0B607047B9
:1001E000662901F0CC84642900F054800020704717
:1001F0001FB501F0B2FC00F0B3FB040000200021A9
:1002000001F0DEFAE0601FBD10B510BD00F0A8FCE3
:100210001146FFF7EDFF00F07FFE00F0C6FC03B4CF
:10022000FFF7F2FF03BC00F009FD0000094880471A
:1002300009480047FEE7FEE7FEE7FEE7FEE7FEE7C8
:10024000FEE7FEE7FEE7FEE704480549054A064BE0
:1002500070470000790E000889010008680000203E
:100260006806002068020020680200200FB41CB558
:10027000074B06AA7B4469460090059800F057FB9F
:100280000020694600F066FB1CBC5DF814FB000012
:10029000DD0600002DE9F0410646002410687529AE
:1002A000314616A510D0AFF30080002802DA404294
:1002B00013A507E031688A0701D512A502E04907B6
:1002C00004D511A5012401E0AFF3008000210A222A
:1002D00006F1240709E0B0FBF2FCB0FBF2F302FBED
:1002E0001C00303078541846491C0028F3D12346AE
:1002F0002A463046BDE8F04100F0AAB800000000F0
:100300002D0000002B000000200000002DE9F05F10
:10031000894604464FF0000ADFF824B1FB44C0F8D8
:1003200020A02046E168884700287DD0252806D0F7
:10033000D4E901219047206A401C2062F1E70025A2
:100340005F462046E16888472028064607DB312EB5
:1003500005D2B81910F8200C08B10543F1E7A80739
:1003600001D525F00405C4F81CA00027C4F818A086
:100370002A2E09D0304601F01BFA38B304EB870867
:10038000303EC8F8186019E059F8041B204604EB09
:1003900087029161E1688847012F064618D1E0691C
:1003A000002820DA25F020051DE0D8F8180000EB21
:1003B000800006EB40003038C8F818002046E1689D
:1003C0008847064601F0F4F90028EED1012F0AD043
:1003D0002E2E08D12046E16888477F1C0646022F52
:1003E00045F02005C4DBA069002803DA404245F04F
:1003F0000105A061E80701D025F01005A6B1A6F11E
:100400004100192802D8203645F400654A46314695
:10041000204625604D46FFF7E3FE60B1012807D076
:10042000ED1D25F0070000E007E000F1080978E77E
:1004300005F1040975E730467AE7206A00F002B852
:100440006218000030BCBDE8C09F7047704770471D
:100450002DE9F0470D4699469246044600F12408DE
:100460000168880604D5E06921F01001216000E0F0
:100470000120A84201DD471B00E00027A1697A198D
:1004800002EB0900081AA0612078C00602D42046B9
:10049000AFF30080002608E0D4E901211AF8060035
:1004A0009047206A401C761C20624E45F4DB207881
:1004B000C0060AD52046AFF3008006E0D4E901214A
:1004C00030209047206A401C2062381EA7F10107A7
:1004D000F4DC07E0D4E9012118F805009047206A10
:1004E000401C2062281EA5F10105F3DC2046AFF375
:1004F00000802078000602D50220BDE8F0870120A8
:10050000FBE72DE9FF4F0C461E464FF0FF378BB03F
:10051000D2E90001DDF860800A908A46C1F30A55ED
:1005200005B93D46002108464FF00000BAF1000F22
:1005300000F4400005DA00EB80004FF4400101EACE
:1005400050004FEA9059B9F1010F00DDB9460A9801
:1005500050EA4A000ED044F61050A5F2FF3545434C
:100560002F14B8F1000F1ED07542291E1EDDC9F1EF
:1005700000021CE0B8F1010F4FF0000001D0302163
:1005800003E0F24305E02154401CB042FBDB30465F
:100590000022002121540B99C1F80880C1E90020F4
:1005A0000FB000F0BCB9BD1B6D1CDEE74A4600DA97
:1005B000694206A800F05EFA06AB93E8070003ABB9
:1005C00083E8070050460A9900F012FD8DE8070005
:1005D000A0F500501F3800900398002D0ADD42F26C
:1005E0001F014A460844002303A90390684600F00F
:1005F0007BFF09E0A0F500504A461F38002303A9FD
:100600000390684600F085FF8DE807000004000CA9
:1006100003D04FF0FF30410800E01046B8F1000F62
:1006200003D00022009215461EE0751E05D400F08E
:100630009BF9303262556D1EF9D5B346012208434D
:1006400002D000227F1C04E02078302801D1002253
:100650007F1E002A099784D01DE0112D07DA00F0D3
:1006600083F9303262556D1C50EA0102F5D108431E
:1006700002D00098C8B10EE00021681E05E0235C9E
:10068000625C63542254401E491C8142F7DBAB4636
:10069000A81B401E0990002004F80B000B98099A33
:1006A000C0F80880C0E9002B7AE711264FF0000857
:1006B00057E72DE9F04F88460446D21D22F0070186
:1006C00091B0D1E90001CDE90A0101F059F80246E3
:1006D0000B98C00F01D02D2007E02068810701D5BD
:1006E0002B2002E0202101EAC000032A099001D05A
:1006F000072A05DB03464146204600F07BF90BE163
:100700002078800601D5E06900E00620B8F1650F89
:10071000814606D0B8F1660F18D0B8F1670F70D1D6
:1007200031E00020B9F1110F009001DB112301E04D
:1007300009F101030AAA01A90CA8FFF7E2FEDDE90D
:100740000C70002609F10105834647E001204B4665
:1007500000904FF000470AAA01A90CA8FFF7D1FEAC
:10076000DDE90DB00C995D46002610B909F10100D4
:100770000D18B9EB050003D4C0F1FF3609F10105EE
:10078000A5EB09002BE0B9F1010F01DA4FF00109E7
:100790000020B9F1110F0090484601DD112300E05F
:1007A00003460AAA01A90CA8FFF7ABFEDDE90C700D
:1007B0004D4600268346207800070AD4AB4500DA70
:1007C0005D4601A8012D04DD411911F8011C3029F5
:1007D00007D04F4502DA17F1040F04DA01208246F0
:1007E0000FE06D1EEEE7002F02DCED1B3E4403E040
:1007F000781CA84200DD7D1CB81B00F1010A4FF0F7
:1008000000472078000703D4AA4501DB4FF0FF3AE8
:100810000021B7F1004F0DF143088DF8431024D0AB
:1008200002202B23002F01DA7F422D230A21021EF2
:10083000A0F1010000DC5FB197FBF1FC97FBF1F246
:1008400001FB1C7C17460CF1300C08F801CDEEE7DB
:10085000A8F1010003702188090501D5452100E0B8
:100860006521A0F1010800F8011C09980FA9A1EB6E
:100870000807FF1D00B10120411901EBEA70A169D1
:100880003844081A401EA0612078C00602D42046D1
:10089000AFF30080099828B1D4E901219047206A7C
:1008A000401C20622078C00622D52046AFF300808D
:1008B0001EE0002E04DBB34502DD01A8805D00E0F0
:1008C0003020D4E901219047206A401C2062761C28
:1008D000AAF101005FEA000A0AD100F041F8C068FD
:1008E0000168405CD4E901219047206A401C2062E5
:1008F000281EA5F10105DCDC07E0D4E9012118F888
:10090000010B9047206A401C2062381EA7F10107A6
:10091000F3DC2046AFF30080032011B041E630BC89
:10092000BDE8C08F01694A1C02610878704700B5B4
:100930008FB0CDE901310021059105497944CDE918
:10094000031011466846FFF7E1FC0FB000BD000040
:10095000E5FFFFFF0A6802F8010B0A60704700001C
:10096000004870472000002030B5B0F10A0271F154
:1009700000034FEA900E4EEA817EB0EB0E0061EB71
:1009800091014FEA101E4EEA017E10EB0E0041EB82
:1009900011114FEA102E4EEA016E10EB0E0041EBE2
:1009A00011214FEA104E4EEA014E10EB0E0041EBC2
:1009B0001141401841F100014FEAD00040EA417076
:1009C0004FEAD1014FEA810444EA907410EB8005AC
:1009D00044EB01046D1944EB0404521BA3414FF096
:1009E000000348BF0A3200D530BD401C41F1000170
:1009F00030BD00002DE9F0411F4604460326016882
:100A0000072A01F4006004DB08B116A505E016A56D
:100A100003E008B115A500E015A521F01000206045
:100A2000A069C01EA0610FB1401EA0612046AFF3B7
:100A300000804FB1D4E9012138469047206A401C1C
:100A40002062C01C206206E0206AFAE7D4E9012196
:100A500015F8010B9047761EF8D22046AFF30080C0
:100A6000BDE8F0814E414E006E616E00494E460079
:100A7000696E66002DE9F047814616468AB0354812
:100A800078440DC88DE80D0032487844801C03ACD2
:100A90000DC884E80D0041F69B300844372190FBD7
:100AA000F1F290FBF1F5A5F1800501FB12041B3C6E
:100AB00002D56442012000E00020DFF898A08046C3
:100AC0000027FA44AAF1BE0A0EE0E0070AD0324637
:100AD000684607EB470101230AEB810100F019FD8D
:100AE0008DE8070064107F1C002CEED1194F7F4465
:100AF000AE3F19E0E80715D007EB04100DF1180A16
:100B000090E80E008AE80E00C068F04201D1981902
:100B100008903246012306A903A800F0FAFC03ABB3
:100B200083E807006D10641C002DE3D14FF0010332
:100B300032466946B8F1000F03A802D000F0D4FC99
:100B400001E000F0E6FCC9E90001C9F808200AB09C
:100B5000BDE8F0878C1100000048704700000020BD
:100B60007546FFF7F9FFAE4605006946534620F08B
:100B70000700854618B020B5FFF766FBBDE82040AA
:100B80004FF000064FF000074FF000084FF0000B49
:100B9000AC46ACE8C009ACE8C009ACE8C009ACE8B8
:100BA000C00921F007018D46704710B50446AFF328
:100BB00000802046BDE81040FFF731BB0000000078
:100BC00030B44FF0013C50F8042B51F8043BCCFA00
:100BD00052F4D51A20D1FCB950F8042B51F8043B3B
:100BE000CCFA52F4D51A17D1B4B950F8042B51F8F5
:100BF000043BCCFA52F4D51A0ED16CB950F8042B40
:100C000051F8043BCCFA52F4D51A05D1002CDAD0B5
:100C100030BC4FF00000704729BAB1FA81F111F0F1
:100C20001801D1F120008440F2D1CA40CB4012F02B
:100C3000FF0213F0FF0330BCD01A7047014918209F
:100C4000ABBEFEE7260002007047000041F24C00F8
:100C5000C4F20200016841F4005101603020C5F285
:100C600004004FF40031C0F8D812002140F8281CCD
:100C70000321C8F2000140F8241C016841F0400142
:100C8000016070470820C5F20400016821F00101ED
:100C9000016070470820C5F20400016841F08051EE
:100CA00041F005010160704741F25800C4F20200B2
:100CB000016841F00201016040F20040C4F200000E
:100CC0000F21816240F2E731C1620121016070476A
:100CD0000823C4F202035A609860D960186840F093
:100CE000010018607047000080B50821C5F20401BA
:100CF00051F8082C920607D50A6822F001020A6012
:100D00000A6842F001020A600821C4F202010A687E
:100D100022F001020A606FF0704241F8042C486032
:100D2000086840F001000860FFF7B4FF80BD0000D4
:100D300041F24800C4F20200016841F00101016083
:100D40000820C4F20200016821F01001016001686E
:100D500041F020010160016841F0800101600168FB
:100D600041F4A0610160D0F8A01021F00F01C0F89B
:100D7000A010704741F24C00C4F20200016841F03B
:100D80000401016040F60000C4F60000016841F073
:100D900003010160C16A41F00101C16270470000B6
:100DA00041F24C00C4F20200C16841F40031C1605C
:100DB000016841F0010101604FF09040016821F0AD
:100DC00030010160016841F0A00101602020C4F6FB
:100DD000000050F8181C41F0F00140F8181C0168A0
:100DE00041F4E0610160016841F4E041016044F2D6
:100DF0000040C4F2000000210160016841F00101DF
:100E00000160016821F48051016040F28361C1609A
:100E1000016841F00C0101607047000041F20800D8
:100E2000C4F2020050F8081C490509D450F8081C07
:100E300041F4807140F8081C50F8081C4905FBD5A6
:100E4000016840F2036201600168016001680160AD
:100E5000016821F003010160016841F001010160B6
:100E600042F20001C4F202010A6050F8081C21F4A9
:100E7000803140F8081C70474EF68850CEF20000D2
:100E800001684FF6FF7341F47001016041F2000008
:100E9000C4F202000168CEF6F62341F001010160C0
:100EA0000021816002681A4002604FF48052C260E3
:100EB000026822F4802202608161704740F2104291
:100EC0004FF0000CC4F20002002300BFC2F814C0AF
:100ED0001168C907FCD01168013321F00101834278
:100EE000116088BF7047F1E710B58EB010EE100AA0
:100EF00000F0C2FD0DF1060402460B4604A1204697
:100F0000FFF7B4F9204600F04FF80EB010BD00BF57
:100F100025302E326600000082B000200190FFF7DD
:100F20007DFFFFF705FFFFF791FEFFF723FFFFF7B8
:100F3000BBFEFFF735FF40F260044025C2F200041B
:100F4000C5F20405284621460322FFF7C1FE03200F
:100F5000FFF7CAFE00F014F80190FFF793FE4FF47C
:100F60007A70FFF7ABFF208800F02EF8FFF7BCFF88
:100F7000562000F00FF8202000F00CF8E2E7000007
:100F80000020C5F2040000BF01684907FCD5D0F875
:100F90000C03704744F21C41C4F20001888100BF79
:100FA00008684006FCD5704710B50178002908BFD5
:100FB00010BD441EC8B2FFF7EDFFA178013400292F
:100FC000F8D110BD0000000080B500F040FC9FED9E
:100FD000060B53EC102B00F051FC00F007FC00EE68
:100FE000100A80BD00BF00BF5F0DABD3DC654A3F78
:100FF0005FEA400C08BF91F0000F4FEA8C234FEAE4
:10100000C12243EA51514FEA1C5018BF00F5F0408D
:101010004FEA300018BF41F000415FEA6C5C00F01D
:101020002980BCF1FF3F08BF40F080407047130C9F
:1010300006BF12044FF0100C4FF0000C130E04BF4B
:1010400012020CF1080C130F04BF12010CF1040C76
:10105000930F04BF92000CF1020CD30F04BF520097
:101060000CF1010C11464FF00002A0F11F00A0EBA3
:101070000C00704711F0004F08BF704731F000417D
:101080003FF4D5AF0B0C06BF09044FF0100C4FF026
:10109000000C0B0E04BF09020CF1080C0B0F04BF6F
:1010A00009010CF1040C8B0F04BF89000CF1020C38
:1010B000CB0F04BF49000CF1010CCCF1200322FA44
:1010C00003F341EA030102FA0CF2A0EB0C0000F179
:1010D0000100704723F07F4720F07F4C80EA030037
:1010E00000F00040ACEB070303F57C5303F1FF0372
:1010F0002DE9804909B44FEA144324EA03484FEA32
:10110000154B25EA0B4E0FF2042606EB13273E780B
:1011100003FB0667C7F5000707FB06F64FEAD6464E
:1011200006F102064FEA543707FB066CCCF1005C6F
:101130004FEA1C472CEA074C0CFB06F507FB06F4AC
:1011400004EB15464FEA961649085FEA320234BFAF
:1011500000204FF000404FEAD13706FB07FC4FEA72
:101160001C4C0CFB0BF7D21B03FB0CF761EB0701CC
:101170000CFB0EF7B0EB074072EB17420CFB08F7C5
:1011800034BFA2EB0742B2EB074261EB17414FEAD3
:101190000C444FEA910706FB07FC4FEA1C4C0CFB82
:1011A0000BF7B0EBC74072EB573203FB0CF734BFC1
:1011B000A2EBC742B2EBC74261EB57310CFB0EF713
:1011C000B0EBC70072EB57720CFB08F734BFA2EB11
:1011D000C702B2EBC70261EB57714FEA816141EA86
:1011E00092114FEA826242EA90124FEA806004EB69
:1011F000CC04039F4FEAD13706FB07FC4FEA1C4C97
:101200000CFB0BF7D21B03FB0CF761EB07010CFB8C
:101210000EF7B0EB074072EB17420CFB08F734BF38
:10122000A2EB0742B2EB074261EB17414FEA8C5544
:1012300004EB9C244FEA910706FB07FC4FEA1C4C89
:101240000CFB0BF7B0EBC74072EB573203FB0CF70C
:1012500034BFA2EBC742B2EBC74261EB57310CFB84
:101260000EF7B0EBC70072EB57720CFB08F734BFF8
:10127000A2EBC702B2EBC70261EB57714FEA816183
:1012800041EA92114FEA826242EA90124FEA80608C
:1012900015EB4C2544F100044FEAD13706FB07FC5F
:1012A0004FEA1C4C0CFB0BF7D21B03FB0CF761EB5A
:1012B00007010CFB0EF7B0EB074072EB17420CFB7B
:1012C00008F734BFA2EB0742B2EB074261EB1741CC
:1012D0004FEA813141EA92414FEA823242EA90423A
:1012E0004FEA80304FEA0C7615EB1C1544F10004F0
:1012F00048EA03434EEA0B484FF0000EB2EB080CED
:1013000071EB030724BF624639464EEB0E0E4FF0D9
:10131000000B0018524149414BEB0B0BB2EB080C90
:1013200071EB03077BF1000B24BF624639464EEB9D
:101330000E0E4FF0000B0018524149414BEB0B0BC6
:10134000B2EB080C71EB03077BF1000B24BF624684
:1013500039464EEB0E0E51EA020718BF46F0010661
:1013600016EB0E7655F1000254F1000103D5BDE8ED
:101370008901BDE80088BDE88901BDE80048B619CB
:10138000524141EB0101A3F10103704780807F7E50
:101390007D7C7B7A797877767675747372717170EB
:1013A0006F6E6E6D6C6C6B6A6A696868676666659D
:1013B0006464636362616160605F5F5E5E5D5D5C2B
:1013C0005C5B5B5A5A59595858575756565555559C
:1013D0005454535352525251515050504F4F4F4EFC
:1013E0004E4D4D4D4C4C4C4B4B4B4A4A4A4949494A
:1013F000484848474747474646464545454444448C
:101400004443434343424242424141419C46002BB4
:1014100030D477002BD04FEA37071CB503B44FF018
:1014200010004FF01001BAF1000F06D0BCF1000F10
:10143000DCBF40F0080040F008014FF000000FBC96
:10144000BDE810400BF1010BBBF1010F08BF5FEAD3
:10145000170722BF12F1010211F101014FF0004103
:1014600043F1000300F0004043EA00007047F9D365
:101470005708D0E746EA06464FEA164613F1400FF2
:101480001FDD13F1200FDFBF16430A460021203372
:101490005B42BED0C3F1200746EA06464FEA164635
:1014A00002FA07F746EA070622FA03F2C3F1200719
:1014B00001FA07F742EA070221FA03F14FF00003AD
:1014C000A7E746EA020646EA06464FEA164646EA15
:1014D0000106BCBF46EA0646360C4FF000034FF04B
:1014E00000024FF0000194E72DE9804C70B49A4659
:1014F000934691E8380007C831EA400C48BF34EA07
:10150000430C03D5FFF7E6FDFFF780FFF0BCBDE815
:10151000008C2DE9804C70B49A46934691E83800CF
:1015200007C810F0804F08BF13F0804F03D100F0C0
:1015300005F8FFF76BFFF0BCBDE8008C20F07F479B
:1015400023F07F4C80EA030000F0004007EB0C031F
:10155000A3F57C53A3F1FE0392F0000F00F0B380DB
:1015600095F0000F00F077802DE901494FEA114016
:1015700021EA00484FEA144624EA064700FB06FC2D
:1015800008FB06F607FB08F818EB06484CEB164C70
:1015900000FB07F718EB07484CEB17404FEA124BDC
:1015A00022EA0B4E4FEA154625EA06470BFB06FCDE
:1015B0000EFB06F607FB0EFE1EEB064E4CEB164C22
:1015C0000BFB07F71EEB074E4CEB174B18EB0B080A
:1015D00040F1000018EB0E0B58EB000840F1000042
:1015E0008F1A4FF000014FF000063CBFC943661B45
:1015F00014BFB5EB040C00213CBFC943F61B4FEAF6
:10160000174427EA04454FEA1C472CEA074C04FB21
:10161000076205FB07F70CFB05F616EB074642EBE6
:10162000174204FB0CFC16EB0C4642EB1C421BEB76
:10163000060658EB020241414EEA8E0E46EA9E062D
:1016400001D5BDE80189B619524141EB0101A3F171
:101650000103BDE801894FEA144524EA05464FEA33
:10166000114721EA074C05FB07F406FB07F70CFBC3
:1016700006F111EB074144EB174405FB0CFC11EBA1
:101680000C4144EB1C444FEA124722EA074C05FB8D
:1016900007F206FB07F70CFB06F616EB074642EBD4
:1016A000174205FB0CFC16EB0C4642EB1C456A1876
:1016B00054F1000148BF7047B619524141EB010196
:1016C000A3F10103704795F0000F37D04FEA1142A4
:1016D00021EA02464FEA144724EA074C02FB07F1CD
:1016E00006FB07F70CFB06F414EB074441EB17412C
:1016F00002FB0CFC14EB0C4441EB1C414FEA154778
:1017000025EA074C02FB07F506FB07F70CFB06F67C
:1017100016EB074645EB174502FB0CFC16EB0C4697
:1017200045EB1C42121951F1000148BF7047B61930
:10173000524141EB0101A3F1010370474FEA144507
:1017400024EA05464FEA114721EA074C05FB07F159
:1017500006FB07F70CFB06F212EB074241EB1741C1
:1017600005FB0CFC12EB0C4251EB1C414FF0000648
:1017700048BF7047921841EB0101A3F10103704784
:1017800003B401984100009850EAC12018BF04201A
:101790004A0D18BF40F0010040F2FF72B2EB515FFA
:1017A00008BF40F00200012808BF052002B07047C2
:1017B00030380A2801D2012070470020704700000D
:1017C00010B500290AD00878002807D005487844C9
:1017D000FFF7F6F9002801D0002010BD0248784438
:1017E00010BD00006A0400006204000021F0004205
:1017F00001F00043A2F16052B2F5801F28BFD2F180
:101800007F6C0BD95FEA001C43EAC20242EB5070C6
:1018100018BF704728BF20F001007047B2F5801F45
:10182000BCBF184670474FEA410C1CF5001F02D29E
:10183000084600F09FB970B500F0CAF800000089B2
:10184000FFF7F6BF4FF00040A0F58000704710F0A2
:10185000004248BF4042B0FA80F310FA03F10AD0C8
:10186000C3F11D0303F5806302EB03524FEA4150BD
:1018700002EBD12170474FF00000704770B5DFF8E0
:1018800048C11CEA111E1EBF1CEA13159EEA0C0F6C
:1018900095EA0C0F00F06F8081EA03044EEAD47ED3
:1018A000AE4421EA4C1123EA4C1341F4801143F475
:1018B0008013AEF17F7EA1FB024CA0FB03653619BD
:1018C00055EB0C05A1FB034C4CF10003A0FB021CE3
:1018D00016EB0C06654153F10003094218BF46F0B0
:1018E000010613F4007F0BD14FEA03314FEA0530B4
:1018F00041EA155140EA165034036FF003020AE042
:101900004FEAC3214FEAC52041EA555140EA5650FB
:10191000F4026FF0020202EB2E4201EB025585EA5F
:10192000CE710AD05FEA440C18BF24F0004450F195
:10193000000041F1000120EAD47040F2FE7C6245D3
:1019400000D270BDA84214BF4FF080444FF0404415
:10195000002E08BF0024BEF1806FA8BFA1F1C041D6
:10196000BDE8704080F2828001F1C04101F0004189
:101970004FF0000070470CEA13159EEA0C0F18BFD9
:1019800095EA0C0F06D081EA030E4FF000000EF02E
:10199000004170BD00F01CF88900013E00F007B85E
:1019A00000F009B84FEA430C5FEA5C5C08D081EABA
:1019B000030100F05BB84FEA410C5FEA5C5CF6D1D2
:1019C00002494FF0000070470000FF070000F87F59
:1019D0000EF1020E2EF0030E5EF8046B364205D4B3
:1019E000012A43EB030515F5001F12D8012841EB2E
:1019F000010C1CF5001F0CD80ED14FEAD17C0CEB6A
:101A00004C0C0CF1020C15F5001F08BF4CEBD37CFD
:101A100004E04FF0080C01E04FEAD37C0CEB4C05DE
:101A200026FA05F606F00706B6F1040C06D20EEB10
:101A3000860CBDE870404CF0010C6047DFE80CF00C
:101A4000090B02024FF00041A1F500214FF0000008
:101A500070BD19461046012851EB010418BFD4F59A
:101A6000001484BF002001F0004170BD0808A0F5FB
:101A700000114FEA3101704743004FEAD30C4FEA9F
:101A80003C0C43401FBF40070CF1605113F0FE4F68
:101A900070471CF0006F03D10CF00041002070472C
:101AA0000CF0004343EA507040EACC0010B500F05F
:101AB0000EF800BF000000924FEA0001FFF7D6BF0A
:101AC0004FF00041A1F500214FF0000070470EF1EA
:101AD000020E2EF0030E5EF8044B244204D44FEAAB
:101AE0004102B2F17F4F11D84FEA4003B3F17F4F6B
:101AF0000CD80ED14FEAD07C0CEB4C0C0CF1020C44
:101B0000B2F17F4F08BF4CEBD17C04E04FF0080CE2
:101B100001E04FEAD17C0CEB4C0324FA03F404F00F
:101B20000704B4F1040C06D20EEB840CBDE810409F
:101B30004CF0010C6047DFE80CF0070802024FF0A0
:101B40000040A0F5800010BD0846420018BFD2F149
:101B5000807288BF00F0004010BDF1EE100A4FF611
:101B6000FF71C0F2C03120EA010040F04070E1EEA8
:101B7000100A7047FF2141EAD050C0057047FEF7B8
:101B800098BD0400000800000000000000020001F1
:101B90000000100002400000000000A00000000053
:101BA00005400000000000C8000000000C400000DC
:101BB0000000409C00000000194000000020BCBE56
:101BC0000000000034400000BFC91B8E000000046C
:101BD000B5400000504BCFD06607E2CF01000000B7
:101BE0006C4100003E8251AADFEEA73401000000E4
:101BF000D9420000DCB5A0E23A301F97FFFFFFFF9B
:101C0000B4450000FD25A0C8E9A3C14FFFFFFFFFB9
:101C1000FF3F00000000008000000000FF3F0000C8
:101C20000000008000000000541C0008000000209C
:101C300068060000C40100081C000000430000000A
:101C4000F8FFFFFF0C0000000E0000000F00000076
:041C50002E00000062
:040000050800022DC0
:00000001FF
